{
  "_format": "hh-sol-artifact-1",
  "contractName": "HelloBlockchain",
  "sourceName": "contracts/HelloBlockchain.sol",
  "abi": [
    {
      "inputs": [
        {
          "internalType": "string",
          "name": "initialMessage",
          "type": "string"
        }
      ],
      "stateMutability": "nonpayable",
      "type": "constructor"
    },
    {
      "anonymous": false,
      "inputs": [
        {
          "indexed": false,
          "internalType": "address",
          "name": "owner",
          "type": "address"
        },
        {
          "indexed": false,
          "internalType": "uint256",
          "name": "timestamp",
          "type": "uint256"
        }
      ],
      "name": "ContractDeployed",
      "type": "event"
    },
    {
      "anonymous": false,
      "inputs": [
        {
          "indexed": false,
          "internalType": "string",
          "name": "oldMessage",
          "type": "string"
        },
        {
          "indexed": false,
          "internalType": "string",
          "name": "newMessage",
          "type": "string"
        },
        {
          "indexed": false,
          "internalType": "address",
          "name": "updatedBy",
          "type": "address"
        }
      ],
      "name": "MessageUpdated",
      "type": "event"
    },
    {
      "inputs": [],
      "name": "deploymentTime",
      "outputs": [
        {
          "internalType": "uint256",
          "name": "",
          "type": "uint256"
        }
      ],
      "stateMutability": "view",
      "type": "function"
    },
    {
      "inputs": [],
      "name": "getInfo",
      "outputs": [
        {
          "internalType": "string",
          "name": "currentMessage",
          "type": "string"
        },
        {
          "internalType": "address",
          "name": "contractOwner",
          "type": "address"
        },
        {
          "internalType": "uint256",
          "name": "deployedAt",
          "type": "uint256"
        }
      ],
      "stateMutability": "view",
      "type": "function"
    },
    {
      "inputs": [],
      "name": "getMessage",
      "outputs": [
        {
          "internalType": "string",
          "name": "",
          "type": "string"
        }
      ],
      "stateMutability": "view",
      "type": "function"
    },
    {
      "inputs": [],
      "name": "owner",
      "outputs": [
        {
          "internalType": "address",
          "name": "",
          "type": "address"
        }
      ],
      "stateMutability": "view",
      "type": "function"
    },
    {
      "inputs": [
        {
          "internalType": "string",
          "name": "newMessage",
          "type": "string"
        }
      ],
      "name": "setMessage",
      "outputs": [],
      "stateMutability": "nonpayable",
      "type": "function"
    }
  ],
  "bytecode": "0x608060405234801561001057600080fd5b5060405161094b38038061094b83398101604081905261002f916100ad565b600061003b82826101ff565b50600180546001600160a01b031916339081179091554260028190556040805192835260208301919091527f836641082a104c21a747f2896a189cda6d34502edf7de2f98afc4460d0720bfa910160405180910390a1506102be565b634e487b7160e01b600052604160045260246000fd5b600060208083850312156100c057600080fd5b82516001600160401b03808211156100d757600080fd5b818501915085601f8301126100eb57600080fd5b8151818111156100fd576100fd610097565b604051601f8201601f19908116603f0116810190838211818310171561012557610125610097565b81604052828152888684870101111561013d57600080fd5b600093505b8284101561015f5784840186015181850187015292850192610142565b600086848301015280965050505050505092915050565b600181811c9082168061018a57607f821691505b6020821081036101aa57634e487b7160e01b600052602260045260246000fd5b50919050565b601f8211156101fa57600081815260208120601f850160051c810160208610156101d75750805b601f850160051c820191505b818110156101f6578281556001016101e3565b5050505b505050565b81516001600160401b0381111561021857610218610097565b61022c816102268454610176565b846101b0565b602080601f83116001811461026157600084156102495750858301515b600019600386901b1c1916600185901b1785556101f6565b600085815260208120601f198616915b8281101561029057888601518255948401946001909101908401610271565b50858210156102ae5787850151600019600388901b60f8161c191681555b5050505050600190811b01905550565b61067e806102cd6000396000f3fe608060405234801561001057600080fd5b50600436106100575760003560e01c8063368b87721461005c5780635a9b0b89146100715780638da5cb5b14610091578063ce6d41de146100bc578063ecda10f5146100d1575b600080fd5b61006f61006a366004610382565b6100e8565b005b610079610223565b60405161008893929190610479565b60405180910390f35b6001546100a4906001600160a01b031681565b6040516001600160a01b039091168152602001610088565b6100c46102da565b60405161008891906104a7565b6100da60025481565b604051908152602001610088565b6001546001600160a01b031633146101465760405162461bcd60e51b815260206004820152601d60248201527f4f6e6c79206f776e65722063616e20757064617465206d657373616765000000604482015260640160405180910390fd5b6000808054610154906104c1565b80601f0160208091040260200160405190810160405280929190818152602001828054610180906104c1565b80156101cd5780601f106101a2576101008083540402835291602001916101cd565b820191906000526020600020905b8154815290600101906020018083116101b057829003601f168201915b5050505050905081600090816101e3919061054a565b507fff7a7383bf3b797bb36d1a67399013eba6795010ebbe7b6fe0a1faaa9cac10cc8183336040516102179392919061060a565b60405180910390a15050565b60606000806000600160009054906101000a90046001600160a01b031660025482805461024f906104c1565b80601f016020809104026020016040519081016040528092919081815260200182805461027b906104c1565b80156102c85780601f1061029d576101008083540402835291602001916102c8565b820191906000526020600020905b8154815290600101906020018083116102ab57829003601f168201915b50505050509250925092509250909192565b6060600080546102e9906104c1565b80601f0160208091040260200160405190810160405280929190818152602001828054610315906104c1565b80156103625780601f1061033757610100808354040283529160200191610362565b820191906000526020600020905b81548152906001019060200180831161034557829003601f168201915b5050505050905090565b634e487b7160e01b600052604160045260246000fd5b60006020828403121561039457600080fd5b813567ffffffffffffffff808211156103ac57600080fd5b818401915084601f8301126103c057600080fd5b8135818111156103d2576103d261036c565b604051601f8201601f19908116603f011681019083821181831017156103fa576103fa61036c565b8160405282815287602084870101111561041357600080fd5b826020860160208301376000928101602001929092525095945050505050565b6000815180845260005b818110156104595760208185018101518683018201520161043d565b506000602082860101526020601f19601f83011685010191505092915050565b60608152600061048c6060830186610433565b6001600160a01b039490941660208301525060400152919050565b6020815260006104ba6020830184610433565b9392505050565b600181811c908216806104d557607f821691505b6020821081036104f557634e487b7160e01b600052602260045260246000fd5b50919050565b601f82111561054557600081815260208120601f850160051c810160208610156105225750805b601f850160051c820191505b818110156105415782815560010161052e565b5050505b505050565b815167ffffffffffffffff8111156105645761056461036c565b6105788161057284546104c1565b846104fb565b602080601f8311600181146105ad57600084156105955750858301515b600019600386901b1c1916600185901b178555610541565b600085815260208120601f198616915b828110156105dc578886015182559484019460019091019084016105bd565b50858210156105fa5787850151600019600388901b60f8161c191681555b5050505050600190811b01905550565b60608152600061061d6060830186610433565b828103602084015261062f8186610433565b91505060018060a01b038316604083015294935050505056fea2646970667358221220da68d43774512efa5acdf394b5a2eb1ebb5861547a681fef60e28173a203725f64736f6c63430008130033",
  "linkReferences": {},
  "deployedLinkReferences": {}
}